:020000022000DC
:106000000000012019620200016202000362020026
:10601000056202000762020009620200000000003F
:106020000000000000000000000000000B62020001
:106030000D620200000000000F6202001162020007
:1060400051C302001362020095D0020013620200E5
:10605000136202001362020091CF02001362020079
:106060001362020013620200136202001362020054
:106070001362020013620200136202001362020044
:10608000136202009D080300136202001362020003
:10609000136202001362020009350300136202005A
:1060A0001362020013620200136202001362020014
:1060B00013620200136202000000000000000000F2
:1060C00013620200136202001362020013620200F4
:1060D000136202001362020013620200000000005B
:1060E00000000000000000000000000000000000B0
:1060F00000000000000000000000000000000000A0
:10610000000000000000000000000000000000008F
:10611000000000000000000000000000000000007F
:10612000000000000000000000000000000000006F
:10613000000000000000000000000000000000005F
:10614000000000000000000000000000000000004F
:10615000000000000000000000000000000000003F
:10616000000000000000000000000000000000002F
:10617000000000000000000000000000000000001F
:10618000000000000000000000000000000000000F
:1061900000000000000000000000000000000000FF
:1061A00000000000000000000000000000000000EF
:1061B00000000000000000000000000000000000DF
:1061C00000000000000000000000000000000000CF
:1061D00000000000000000000000000000000000BF
:1061E00000000000000000000000000000000000AF
:1061F000000000000000000000000000000000009F
:10620000FEE7FEE7FEE7FEE7FEE7FEE7FEE7FEE766
:10621000FEE7FEE700F002B8FFF7FCBF0F484FF0C3
:106220000701884385460E4880470E48016841F4BF
:1062300070010160BFF34F8FBFF36F8F00F01AB88A
:1062400009480A490A4A884207D0521A05D00378F9
:1062500001300B700131013AF9D170470000012083
:106260008988020088ED00E0943E0300D82A0020CF
:10627000D82A002039493A480A1A02D00722914305
:106280008D46384938480A1A06D00722914381F3CF
:106290000988022282F3148834483549354A00F0CF
:1062A0003EF835483549364A00F039F83548364920
:1062B000364A00F034F836483649374A00F02FF8AD
:1062C00036483749374A00F02AF837483749384ABC
:1062D00000F025F837483849384A00F020F83848A7
:1062E0003849002200F033F837483849002200F0DE
:1062F0002EF837483749091A0DF05EFC364A9047A8
:1063000024482549884205D00268043003B49047E8
:1063100003BCF7E700200021304A9047FEE788429F
:1063200014D0521A12D003460B43134303242342C2
:1063300006D1036804300B600431043AF9D1704788
:10634000037801300B700131013AF9D1704788426E
:1063500002D002700130FAE770470000000001200F
:1063600000E0002000000120000001200461030083
:10637000D82A0020102C0020E0630200E063020015
:10638000903D030004610300D82A0020D82A002091
:10639000943E0300943E0300943E0300943E0300A9
:1063A000943E0300943E0300943E0300943E030099
:1063B000016103003C620300102C0020102C00201F
:1063C000102C0020CC3E0020CC3E0020CC3E0020F3
:1063D000CC3E0020CC5E00204162020071700200C1
:1063E00076DF704700BF18467ADF704700BF184657
:1063F0007CDF704700BF18467FDF704700BF18463C
:106400008FDF704700BF1846B1DF704700BF1846E6
:1064100033DF704700BF184600B583B003460091D4
:10642000ADF80630BDF80630009A1946024808F06B
:106430002BFE00BF03B000BDEFBEADDE00B583B0E4
:1064400009F06CFA0190019B0093009B002B04D093
:10645000034A9121009808F017FE00BF03B000BD69
:10646000943E030000B587B09DF80030012262F32E
:1064700003038DF800309DF80030012262F307130A
:106480008DF800306B460B2219491846FFF7B0FF14
:106490000590059B0493049B002B04D0154AA4216E
:1064A000049808F0F1FD01AB0822002118460DF018
:1064B000D7FB1023ADF804303C23ADF806300023A1
:1064C000ADF808304FF4C873ADF80A3001AB184688
:1064D000FFF78AFF0590059B0393039B002B04D0D5
:1064E000044AAE21039808F0CFFD00BF07B000BDFD
:1064F0000C3F0300943E030000B583B00190044AB2
:10650000BB21019808F0C0FD00BF03B000BD00BF73
:10651000943E030000B597B00190019B1B78002BBF
:106520000AD1774A774BD31ADB081B0443F00303E5
:10653000754918460CF024F8019B002B0BD1704ACA
:10654000704BD31ADB081B0443F001036F49184654
:106550000CF016F8D2E06A4A6A4BD31ADB081B0427
:1065600043F00300019B1B781A4669490CF015F8AB
:10657000019B1B78032B13D0032B00F3B080002B5F
:106580001AD0022B40F0AB805D4A5E4BD31ADB0879
:106590001B0443F003035F4918460BF0F1FFADE025
:1065A000574A584BD31ADB081B0443F003035A49DC
:1065B00018460BF0E5FFA1E0019B1B69002B03D0FF
:1065C000019B9B8A002B0BD14D4A4E4BD31ADB0803
:1065D0001B0443F00203514918460BF0D1FF8DE034
:1065E00003AB3222002118460DF03AFB002315932D
:1065F0000CE0019B1A69159B1344197803AA159B9B
:1066000013440A461A70159B01331593019B9B8A0C
:106610001A46159B9342ECD3019B9B8AADF83E3002
:106620003123ADF84E30019B1B890DF13E0203A9C9
:106630003B4805F095FA1290314A324BD31ADB08E9
:106640001B0443F00300019B1B891A4635490BF0DC
:10665000A4FF002314932BE0019B1A69149B13449D
:106660001B78184609F06AFC1190119B002B19D079
:10667000119B112B16D0224A224BD31ADB081B0484
:1066800043F00103119A284918460BF086FF119B2D
:106690001093109B002B05D0244A40F23B11109818
:1066A00008F0F2FC119B112BD6D0149B01331493EC
:1066B000019B9B8A1A46149B9342CDD3019B1A6976
:1066C000019B9B8A013B13441B780D2B15D100BF06
:1066D0000A2009F033FC0346112BF9D00DE0084ADB
:1066E000084BD31ADB081B0443F00200019B1B7804
:1066F0001A460F490BF051FF00E000BF17B000BD74
:106700002C3E0300043E0300183F03004C3F0300EF
:10671000603F0300743F0300B03F0300CC3F030021
:10672000E02A0020E43F0300FC3F0300943E030006
:106730002840030000B587B000230193334A344B4F
:10674000D31ADB081B0443F00303324918460BF04D
:1067500017FF314B01932D4A2D4BD31ADB081B0435
:1067600043F003032D4918460BF00AFF01AB19460D
:106770002B4804F0C1FD0590059B0493049B002B5E
:1067800005D0284A4FF4B271049808F07DFC1F4AE6
:106790001F4BD31ADB081B0443F00303224918469E
:1067A0000BF0EEFE02AB0422002118460DF058FA61
:1067B0001E4B0293154A164BD31ADB081B0443F0F9
:1067C0000303029A1A4918460BF0E7FE02AB19467A
:1067D000184805F01FF905900C4A0D4BD31ADB0839
:1067E0001B0443F00303144918460BF0C9FE059B34
:1067F0000393039B002B05D00A4A4FF4B87103980A
:1068000008F042FC00BF07B000BD00BF2C3E0300F3
:10681000043E030044400300F964020050400300BA
:10682000282C0020943E03005C4003001565020004
:1068300068400300E02A00208040030000B585B0D6
:106840000190019B1B78002B11D10A4B1B883B2127
:106850001846FFF7C5FD0390039B0293029B002B94
:1068600005D0054A4FF4C371029808F00DFC00BF33
:1068700005B000BDFC2A0020943E030000B583B0A3
:106880000190044A40F29111019808F0FDFB00BF0D
:1068900003B000BD943E030000B58BB001AB1C22D9
:1068A000002118460DF0DCF9002301934FF4A033CA
:1068B00002934FF4F023039303238DF81030002349
:1068C000ADF8123000238DF814300B4B06930B4BB0
:1068D000079301AB184603F0FDFC0990099B089350
:1068E000089B002B05D0064A4FF4D471089808F095
:1068F000CBFB00BF0BB000BD3D6802007D6802000D
:10690000943E030000B585B0002001F049FA0390E1
:10691000039B0293029B002B05D0124A40F2B31155
:10692000029808F0B1FB01F0C1FB0390039B0193B7
:10693000019B002B05D00B4A40F2B711019808F0DB
:10694000A3FBFFF765FD0390039B0093009B002BC7
:1069500005D0044A40F2BB11009808F095FB00BF37
:1069600005B000BD943E030000B585B003468DF828
:1069700007309DF80730002B11D0032B12D10220D5
:1069800001F00EFA0390039B0293029B002B0BD0A5
:10699000074A40F2CD11029808F076FB04E0FFF7B9
:1069A000B1FF02E000BF00E000BF00BF05B000BDC6
:1069B000943E030000B58DB00190009100990198BC
:1069C00004F0ECFF019B1B88562B00F0B580562B82
:1069D00000F3C580522B00F08880522B00F3BF805B
:1069E0003B2B00F096803B2B00F3B980212B4ED03F
:1069F000212B00F3B480132B63D0132B00F3AF8053
:106A0000102B02D0112B32D0A9E05D4A5D4BD31A76
:106A1000DB081B0443F003035B4918460BF0B0FD91
:106A2000072001F0BDF90B900B9B0593059B002BF4
:106A300005D0564A4FF4F571059808F025FB019BE7
:106A40009A88534B1A80524B1B881946514804F0C0
:106A500075FC0B900B9B0493049B002B00F0818032
:106A60004A4A40F2ED11049808F00EFB79E0444ADE
:106A7000444BD31ADB081B0443F003034649184672
:106A80000BF07EFD424B4FF6FF721A8074E000233C
:106A90008DF80C3000238DF80D30019B9B8803AAE4
:106AA00011461846FFF7ACFC0B900B9B0793079B16
:106AB000002B58D0354A4FF40071079808F0E4FADB
:106AC00051E0334B1888002300228521FFF794FC06
:106AD0000B900B9B0693069B002B46D02B4A40F253
:106AE0000621069808F0D0FA3FE0294B18880023C9
:106AF00000220021FFF788FC0B900B9B0993099B58
:106B0000002B34D0214A4FF40371099808F0BCFAE5
:106B10002DE0019B9B8813211846FFF761FC0B9029
:106B20000B9B0893089B002B23D0184A40F213219B
:106B3000089808F0A9FA1CE0019B9B8813211846CD
:106B4000FFF74EFC0B900B9B0A930A9B002B12D075
:106B50000E4A40F21A210A9808F096FA0BE000BF9C
:106B60000AE000BF08E000BF06E000BF04E000BF8D
:106B700002E000BF00E000BF00BF0DB000BD00BFDD
:106B80002C3E0300043E03008C400300943E0300AF
:106B9000FC2A0020282C00209C40030000B587B070
:106BA0000CF034FC0590059B0493049B002B05D04E
:106BB000154A40F23121049808F066FA0023019347
:106BC00001AB194601200CF0D5FC0590059B039301
:106BD000039B002B05D00C4A40F23721039808F0A4
:106BE00053FA01AB18460CF0E3FD0590059B0293A8
:106BF000029B002B05D0044A40F23B21029808F08A
:106C000043FA00BF07B000BD943E030000B583B057
:106C100001900091009B5A88104B1B889A421AD110
:106C2000009B1B8840F67722934214D1009B9B88DF
:106C3000033B9AB20A4B1A800A4A0B4BD31ADB0861
:106C40001B0443F00300064B1B881A46044B1B88A9
:106C500006490BF0B2FC00BF03B000BDFC2A0020C7
:106C6000FE2A00202C3E0300043E0300AC4003003B
:106C700000B585B01149124804F067FA0390039BF0
:106C80000293029B002B05D00E4A40F25621029837
:106C900008F0FAF9F7210A4804F081FA0390039BFF
:106CA0000193019B002B05D0064A40F2592101981F
:106CB00008F0EAF900BF05B000BD00BF0D6C02008E
:106CC000142C0020943E030000B587B003468DF8D5
:106CD00007309DF807300A2B06D00A2B36DC042B30
:106CE00005D0072B19D031E0FFF70CFE33E01B4B2A
:106CF0001B8813211846FFF773FB0590059B082B93
:106D000026D0059B0393039B002B21D0144A40F20D
:106D10006E21039808F0B8F91AE0104B1B884FF663
:106D2000FF72934216D10F4803F05BF90590059B63
:106D3000082B0FD0059B0493049B002B0AD0084A14
:106D40004FF41E71049808F09FF903E000BF02E0C1
:106D500000BF00E000BF00BF07B000BDFC2A00205C
:106D6000943E0300342C002000B587B00190019BB5
:106D70001B78022B55D0022B65DC002B02D0012B97
:106D800058D060E0334B1B781A46334B13441846F7
:106D900009F09CF82F4B1B780133DAB22D4B1A7097
:106DA0002C4B1B78013B2C4AD35C0A2B0DD0294B72
:106DB0001B78013B284AD35C0D2B06D0254B1B7852
:106DC0001A46264B1B889A423FD3224B1B78012B35
:106DD00023D9204B1B78ADF80E30214B1B880DF1C9
:106DE0000E021D491F4804F0BBFE0590059B082BB1
:106DF00010D0059B132B0DD0059B052B0AD0059BAE
:106E00000493049B002B05D0174A40F2A721049855
:106E100008F03AF9059B132BDBD00E4B00221A70B9
:106E200013E0019B5B68104A40F2B121184608F05C
:106E30002BF90BE0019B5B680B4A40F2B521184629
:106E400008F022F902E000BF00E000BF00BF07B079
:106E500000BD00BF683000206C300020FE2A0020FA
:106E6000FC2A0020E02A0020943E030030B58DB0BB
:106E7000134B04AC1D460FCD0FC495E8030084E806
:106E80000300104B00934FF4807301930E4B029359
:106E90004FF480730393694604A807230B4A08F054
:106EA00085FF0B900B9B0A930A9B002B05D0084A89
:106EB00040F2DA210A9808F0E7F800BF0DB030BDC3
:106EC000C84003006031002060320020696D02007C
:106ED000943E030000B5AFB001ABAC2200211846D0
:106EE0000CF0BEFE02238DF8043000238DF806302E
:106EF00005238DF807300123ADF85030114B159361
:106F000001238DF880304023239344F2506324936F
:106F10000D4B2A9301AB19460C4802F049FE2D9007
:106F20002D9B2C932C9B002B05D0094A40F2F52178
:106F30002C9808F0A9F80121044802F02CFE00BFAB
:106F40002FB000BD002B002069690200342C002006
:106F5000943E030000B587B001901749032000F06C
:106F600039FF0590059B0493049B002B05D0134A21
:106F70004FF44171049808F087F80DF10B0319469E
:106F8000002001F0F3F80590059B0393039B002B71
:106F900005D00A4A40F20731039808F075F89DF8C9
:106FA0000B30022B0CBF01230023DAB2019B1A70B5
:106FB00000BF07B000BD00BFC96C0200943E0300D3
:106FC00000B583B04FF4804100200BF00FF8019022
:106FD000019B0093009B002B05D0054A40F2123123
:106FE000009808F051F80AF099FF00BF03B000BD07
:106FF000943E030000B583B00AF0D4FC0190019BDD
:107000000093009B002B05D0044A40F21E310098EB
:1070100008F03AF800BF03B000BD00BF943E030083
:1070200008B50BF019FB034683F00103DBB2002B1C
:1070300001D00AF0CDFC00BF08BD000000B583B050
:107040000321094802F08CFE0190019B0093009BF4
:10705000002B05D0054A4FF44D71009808F014F844
:1070600000BF03B000BD00BF342C0020943E0300DD
:1070700000B583B0FFF7FAFEFFF7A2FFFFF7DEF9D6
:107080000DF107031846FFF765FFFFF7B3FFFFF7A2
:1070900085FDFFF7E7F9FFF7EBFDFFF74BFBFFF788
:1070A00019FFFFF7F9FB09480CF0A2FC084A094B4D
:1070B000D31ADB081B0443F00303074918460BF0FF
:1070C0005FFAFFF7BBFFFFF7ABFFFCE7E040030011
:1070D0002C3E0300043E0300F440030000B583B0DF
:1070E0000190019B1B68184600F008F90346002B2D
:1070F00004D105494FF4F670FFF78EF94FF0A04325
:10710000184603B000BD00BF2041030000B585B0A4
:107110000190084611461A4603468DF803300B4687
:107120008DF8023013468DF8013001AB1846FFF799
:10713000D5FF03909DF803209DF802305B001A43B1
:107140009DF801309B001A439DF818301B0242EA5B
:1071500003019DF81C301B04019A1943039B02F59F
:10716000E07243F8221000BF05B000BD00B585B045
:1071700003900023019300230093002301220121A7
:107180000398FFF7C3FF00BF05B000BD00B585B091
:1071900003900B468DF80B309DF80B3000220192C6
:1071A00000220092002200210398FFF7AFFF00BFEA
:1071B00005B000BD00B585B0019001AB1846FFF7E2
:1071C0008DFF0390019B012202FA03F319460398F5
:1071D00000F080F800BF05B000BD00B585B001909B
:1071E00001AB1846FFF77AFF0390019B012202FAD8
:1071F00003F31946039800F077F800BF05B000BD0F
:1072000000B585B0019001AB1846FFF767FF03900A
:10721000039BD3F804350293029BDA43019B0121BF
:1072200001FA03F31A40039BC3F80825019B0122CE
:107230009A40029B1A40039BC3F80C2500BF05B07F
:1072400000BD00B583B001900091009B002B03D1DD
:107250000198FFF7C2FF02E00198FFF7ABFF00BF04
:1072600003B000BD00B585B0019001AB1846FFF733
:1072700035FF0390039800F01DF80246019B22FAA7
:1072800003F303F00103184605B000BD00B585B057
:10729000019001AB1846FFF721FF0390039800F01F
:1072A00011F80246019B22FA03F303F0010318468A
:1072B00005B000BD82B00190019BD3F8103518468F
:1072C00002B0704782B00190019BD3F80435184694
:1072D00002B0704782B001900091019B009AC3F800
:1072E000082500BF02B0704782B001900091019B59
:1072F000009AC3F80C2500BF02B0704784B001901B
:10730000019B5B09029300230393029B002B03D193
:107310004FF0FF33039300BF019B03F01F03019362
:10732000039A019B22FA03F303F00103DBB2184630
:1073300004B0704700B585B00190019B032B03D9C1
:1073400010493A20FFF768F80F4A019B13441B7855
:107350001846FFF79BFF0346002B14BF01230023B1
:107360008DF80F309DF80F30002B14BF0123002340
:10737000DBB283F00103DBB203F00103DBB218469A
:1073800005B000BD50410300B841030000B583B013
:107390000190019B032B03D907494120FFF73CF8DB
:1073A000064A019B13441B7800211846FFF749FF4A
:1073B00000BF03B000BD00BF50410300B84103004F
:1073C00000B583B00190019B032B03D907494720E7
:1073D000FFF722F8064A019B13441B780121184647
:1073E000FFF72FFF00BF03B000BD00BF50410300F7
:1073F000B841030000B583B00023019305E0019874
:10740000FFF7DEFF019B01330193019B032BF6D9AC
:1074100000BF00BF03B000BD00B583B000230193DF
:1074200005E00198FFF7B2FF019B01330193019B37
:10743000032BF6D900BF00BF03B000BD00B583B079
:107440000190019B032B03D906495F20FEF7E4FF5F
:10745000054A019B13441B781846FFF7D1FE00BF75
:1074600003B000BD50410300B841030000B583B034
:107470000023019309E0094A019B13441B78184635
:10748000FFF774FE019B01330193019B032BF2D99B
:10749000FFF7B0FF00BF03B000BD00BFB84103005D
:1074A00000B585B00190019B032B03D91049AC2096
:1074B000FEF7B2FF0F4A019B13441B781846FFF7F3
:1074C000D1FE0346002B14BF012300238DF80F309B
:1074D0009DF80F30002B14BF01230023DBB283F093
:1074E0000103DBB203F00103DBB2184605B000BDB7
:1074F00050410300BC41030000B583B00023019359
:107500000AE0094A019B13441B7803211846FFF740
:107510003DFE019B01330193019B032BF1D900BF79
:1075200000BF03B000BD00BFBC41030084B00190A8
:107530004FF0FF330293002303930DE00A4A039BAD
:1075400013441B781A46019B934202D1039B02937A
:1075500005E0039B01330393039B032BEED9029BAE
:10756000184604B0704700BFBC41030000B583B0AB
:107570000190019B032B03D90549CB20FEF74CFF5B
:10758000044A019B13441B78184603B000BD00BF9A
:1075900050410300BC41030000B583B00190019B42
:1075A00003F00103002B01D0FFF760FF019B03F004
:1075B0000203002B01D0FFF79FFF00BF03B000BD07
:1075C00000B583B00190019B1B68184600F03CF8A1
:1075D0000346002B04D105494FF4F670FEF71CFF5B
:1075E0004FF0A043184603B000BD00BFC0410300E8
:1075F00000B585B001900B468DF8033001AB1846FD
:10760000FFF7DEFF0390019A039B02F5E07253F847
:107610002230019A23F44031039B02F5E07243F8D3
:107620002210019A039B02F5E07253F822109DF894
:1076300003301B04019A1943039B02F5E07243F8DF
:10764000221000BF05B000BD84B00190019B5B0912
:10765000029300230393029B002B03D14FF0FF33CF
:10766000039300BF019B03F01F030193039A019B47
:1076700022FA03F303F00103DBB2184604B07047AB
:1076800000B583B00190019B032B04D80198FFF74C
:1076900007FF034600E00023184603B000BD0000CA
:1076A00000B587B003460A468DF8073013468DF8BB
:1076B000063000238DF81730002304939DF807301F
:1076C0001846FFF733FF0490049B032B62D89DF804
:1076D0000630022B52D0022B5CDC002B31D0012B68
:1076E00058D13549049A13465B0013440B441B7868
:1076F0008DF817303049049A13465B0013440B444D
:1077000001331B78002B0ED02C4B2D4A4FF48041B7
:10771000184608F079F90390039B002B03D1284AFF
:107720009DF8073013702449049A13465B001344F4
:107730000B4402331978234A049B13440A461A70F7
:1077400028E01E4B184608F0B7F91E4A049B134464
:1077500019781948049A13465B0013440344023312
:107760001B78994215D11449049A13465B001344BF
:107770000B4402331B788DF817300AE00E49049A47
:1077800013465B0013440B4401331B788DF817300C
:1077900000E000BF9DF81730002B09D00A4B1B6892
:1077A000002B05D0084B1B689DF817201046984702
:1077B00000BF07B000BD00BF70330020482B002081
:1077C0007C330020803300206C33002000B583B070
:1077D0000190019B1B7802211846FFF761FF00BF53
:1077E00003B000BD00B583B00C4B1B78002B0FD04D
:1077F0000023019308E0019B022B02D00198FFF7C0
:10780000DFFD019B01330193019B032BF3D901E0C1
:10781000FFF7F0FD00BF03B000BD00BF68330020DC
:107820002DE9D04F92B003468DF83F3000231193DD
:1078300000231093BF4B1B78002B04D0BD4A0023BC
:107840001370FFF7CFFF9DF83F30172B00F37882BE
:10785000162B80F26E82152B00F05E82152B00F342
:107860006F82142B00F04E82142B00F36982132BCD
:1078700000F03E82132B00F36382122B00F0318262
:10788000122B00F35D82112B00F35A820D2B80F234
:10789000E0810C2B00F0D6810C2B00F351820B2BD6
:1078A00000F0C1810B2B00F34B820A2B00F0AC815E
:1078B0000A2B00F34582092B00F09781092B00F376
:1078C0003F82082B00F08281082B00F33982072BBE
:1078D00000F07481072B00F33382062B00F05E81E9
:1078E000062B00F32D82052B00F00581052B00F3FC
:1078F0002782042B00F0BE80042B00F32182032B8F
:1079000068D0032B00F31C82002B07D0002BC0F2A1
:107910001782013B012B00F213820BE0FFF762FF9D
:10792000854B184608F0C8F81190844A9DF83F30FE
:10793000137006E20020FFF7FDFC0346002B0ED07B
:107940000020FFF73DFD9DF83F30022B03D14FF49F
:10795000E163109310E04FF47A6310930CE0002081
:10796000FFF714FD9DF83F30022B02D1C82310937E
:1079700002E04FF4C8731093704A9DF83F301370C3
:107980006D4C109B0022009301924FF000024FF0CB
:107990000003DDE900673946CB03314643EA514332
:1079A0003146CA0312F57A71029143F10003039341
:1079B0004FF4FA624FF00003DDE902010CF046F8E3
:1079C00002460B46134600221946204608F01CF8D2
:1079D0001190B6E10020FFF7ADFC0346002B0ED05E
:1079E0000020FFF7EDFC9DF83F30032B03D14FF44F
:1079F0004873109310E04FF47A6310930CE000206A
:107A0000FFF7C4FC9DF83F30032B02D1C82310932D
:107A100002E04FF4C8731093484A9DF83F3013704A
:107A2000454C109B0022049305924FF000024FF04A
:107A30000003DDE904673946CB03314643EA51438D
:107A40003146CA0312F57A71069143F10003079398
:107A50004FF4FA624FF00003DDE906010BF0F6FF88
:107A600002460B46134600221946204607F0CCFF7B
:107A7000119066E10020FFF75DFC0346002B06D065
:107A80000020FFF79DFC4FF47A63109305E000207F
:107A9000FFF77CFC4FF4C8731093284A9DF83F30E1
:107AA0001370254C109B0022089309924FF000029E
:107AB0004FF00003DDE908673946CB03314643EA5E
:107AC00051433146CA0312F57A710A9143F100031A
:107AD0000B934FF4FA624FF00003DDE90A010BF05B
:107AE000B5FF02460B46134600221946204607F012
:107AF0008BFF119025E10020FFF71CFC0346002BB3
:107B00000DD00020FFF75CFC9DF83F30052B02D123
:107B1000C823109317E04FF47A63109313E000200A
:107B2000FFF734FC9DF83F30052B09D1C823109393
:107B300009E000BF61330020082B002060330020E3
:107B40004FF4C8731093814A9DF83F301370804CF6
:107B5000109B00229A4693464FF000024FF000031C
:107B60004FEACB3343EA5A434FEACA3212F57A71ED
:107B70000C9143F100030D934FF4FA624FF00003B0
:107B8000DDE90C010BF062FF02460B4613460022B2
:107B90001946204607F038FF1190D2E00020FFF789
:107BA0004DFC6A4A9DF83F301370694B002240F249
:107BB0006661184607F028FF1190C2E00020FFF729
:107BC000E5FB624A9DF83F301370BAE0614B012239
:107BD0001A700120FFF732FC5D4B002240F2666113
:107BE000184607F011FF1190ABE05A4B01221A70B2
:107BF0000120FFF723FC564B00224FF4005118469A
:107C000007F002FF11909CE0524B01221A700120F4
:107C1000FFF714FC4E4B002240F26661184607F055
:107C2000F3FE11908DE04B4B01221A700120FFF7FB
:107C300005FC474B00224FF40051184607F0E4FEC4
:107C400011907EE0FFF7E8FB404A9DF83F3013704B
:107C500077E0414B184607F02FFF11909DF83F3019
:107C6000C3F111031093109B002B33D0119B002BF9
:107C700030D1109B012B26D9374C109B9BB21A4652
:107C8000C82302FB03F3DA171E4617464FF0000223
:107C90004FF00003FB0343EA5643F20312F57A78F0
:107CA00043F100094FF4FA624FF0000340464946A1
:107CB0000BF0CCFE02460B46134600221946204626
:107CC00007F0A2FE11900220FFF760FB234B012278
:107CD0001A7036E00220FFF773FB204B00221A7067
:107CE0002FE0FFF77FFD194A9DF83F30137028E021
:107CF000FFF778FD0020FFF749FB144A9DF83F305D
:107D000013701EE0FFF76EFD0120FFF73FFB0F4AE7
:107D10009DF83F30137014E0FFF764FD0020FFF77B
:107D200035FB0120FFF732FB084A9DF83F30137006
:107D300007E0FFF771FB054A9DF83F30137000E044
:107D400000BF119B184612B0BDE8D08F60330020F1
:107D5000082B002061330020282B002068330020EE
:107D600000B583B00190074B1B6803F00103002BA3
:107D700004D0054B1B781846FFF752FD00BF03B037
:107D800000BD00BF643300206033002000B583B025
:107D900001900220FFF752FB00BF03B000BD0000BE
:107DA00000B585B003468DF8073000230393084BD8
:107DB0001B6803F00103002B05D09DF8073018461F
:107DC000FFF72EFD0390039B184605B000BD00BFD2
:107DD0006433002000B585B0019000910023039327
:107DE000294A019B1360294A009B1360019B03F001
:107DF0000203002B2AD00023029308E00122012174
:107E0000029800F053F80390029B01330293029B07
:107E1000032B02D8039B002BF0D0039B002B06D131
:107E200040F2333204211A4807F02EF80390039BE6
:107E3000002B02D107F0B0F80390039B002B05D173
:107E4000144A0021144807F0A5FD0390019B03F09C
:107E50000103002B14D00120FFF79EFB039B002B96
:107E600005D10E4A00210E4807F094FD0390039BB4
:107E7000002B05D10B4A01210B4807F08BFD039025
:107E8000039B184605B000BD643300206C3300200E
:107E9000FC410300CD770200F8410300617D020040
:107EA000F04103008D7D0200F441030084B0019095
:107EB0000B468DF8033013468DF8023000230393F0
:107EC000019B032B3DD89DF80230012B0CD19DF86E
:107ED0000330012B05D1019BDBB20E338DF802304C
:107EE00002E000238DF802309DF80330022B0FD002
:107EF000022B23DC002B16D0012B1FD11449019A31
:107F000013465B0013440B449DF802201A701AE0DC
:107F10000F49019A13465B0013440B4401339DF84B
:107F200002201A700FE00A49019A13465B001344BD
:107F30000B4402339DF802201A7004E007230393D8
:107F400001E007230393039B184604B0704700BF6A
:107F50007033002000B585B001900B468DF80330DA
:107F6000019B032B16D89DF80330002B03D003236D
:107F70008DF80F3002E000238DF80F300198FFF7E5
:107F8000F5FA02469DF80F3019461046FFF730FB10
:107F9000002300E00623184605B000BD00B583B0FD
:107FA000019001210198FFF7D5FF0346184603B061
:107FB00000BD00B583B0012200210020FFF776FF4D
:107FC0000190019B002B04D0019B072B01D0019B4A
:107FD0001CE0072202210120FFF768FF0190019BAE
:107FE000002B04D0019B072B01D0019B0EE0042243
:107FF00002210020FFF75AFF0190019B002B04D0C3
:10800000019B072B01D0019B00E00023184603B021
:1080100000BD00B583B0012202210020FFF746FF1A
:108020000190019B002B04D0019B072B01D0019BE9
:108030001CE0072202210120FFF738FF0190019B7D
:10804000002B04D0019B072B01D0019B0EE00A22DC
:1080500000210020FFF72AFF0190019B002B04D094
:10806000019B072B01D0019B00E00023184603B0C1
:1080700000BD00B583B001900120FFF701FB03466E
:10808000002B03D0019B02221A700CE00020FFF7A6
:10809000F7FA0346002B03D0019B0B221A7002E073
:1080A000019B00221A7000BF03B000BD00B583B071
:1080B0000020FFF773FF0190019B002B04D0019B70
:1080C000062B01D0019B0CE00120FFF767FF019018
:1080D000019B002B04D0019B062B01D0019B00E0EB
:1080E0000023184603B000BD00B585B00190009193
:1080F000019B1B88102B02D0112B18D02FE0194B9D
:108100001B68002B0DD1FFF754FF0390039B002B3E
:1081100007D0154B1B68002B03D0134B1B6803982B
:108120009847104B1B6801330E4A136017E00D4B44
:108130001B68013B0B4A13600A4B1B68002B0DD1D7
:10814000FFF767FF0390039B002B07D0064B1B68CC
:10815000002B03D0044B1B680398984700BF00BF57
:1081600005B000BD883300208433002000B585B001
:108170000190009100230393094A019B1360009B27
:10818000002B02D00098FFF774FF064B1B68002BF2
:1081900002D1FFF73EFF0390039B184605B000BDD8
:1081A0008433002088330020BFF34F8F00BF064B7D
:1081B000DB6803F4E0620449044B1343CB60BFF374
:1081C0004F8F00BF00BFFDE700ED00E00400FA059F
:1081D00082B0214B1B68B3F1FF3F0AD11F4B1B68D4
:1081E000DBB201931E4B1B681B0903F00F030093C6
:1081F00005E0194B1B6801931A4B1B680093019B08
:10820000062B24D1009B072B1DD0009B072B1CD8CD
:10821000009B062B15D0009B062B16D8009B052B28
:108220000DD0009B052B10D8009B032B03D0009B87
:10823000042B02D009E001230AE0012308E0012316
:1082400006E0012304E0012302E0012300E0002313
:10825000184602B0704700BF30010010E00F00F078
:10826000E80F00F03401001082B01B4B1B68DBB23A
:1082700001931A4B1B681B0903F00F030093019B2A
:10828000062B24D1009B072B1DD0009B072B1CD84D
:10829000009B062B15D0009B062B16D8009B052BA8
:1082A0000DD0009B052B10D8009B032B03D0009B07
:1082B000042B02D009E001230AE0002308E0002398
:1082C00006E0002304E0002302E0002300E0002396
:1082D000184602B0704700BFE00F00F0E80F00F052
:1082E00082B0214B1B68B3F1FF3F0AD11F4B1B68C3
:1082F000DBB201931E4B1B681B0903F00F030093B5
:1083000005E0194B1B6801931A4B1B680093019BF6
:10831000062B24D1009B072B1DD0009B072B1CD8BC
:10832000009B062B15D0009B062B16D8009B052B17
:108330000DD0009B052B10D8009B032B03D0009B76
:10834000042B02D009E001230AE0012308E0012305
:1083500006E0012304E0012302E0012300E0002302
:10836000184602B0704700BF30010010E00F00F067
:10837000E80F00F03401001082B01B4B1B68DBB229
:1083800001931A4B1B681B0903F00F030093019B19
:10839000062B24D1009B072B1DD0009B072B1CD83C
:1083A000009B062B15D0009B062B16D8009B052B97
:1083B0000DD0009B052B10D8009B032B03D0009BF6
:1083C000042B02D009E001230AE0002308E0002387
:1083D00006E0002304E0002302E0002300E0002385
:1083E000184602B0704700BFE00F00F0E80F00F041
:1083F00082B0214B1B68B3F1FF3F0AD11F4B1B68B2
:10840000DBB201931E4B1B681B0903F00F030093A3
:1084100005E0194B1B6801931A4B1B680093019BE5
:10842000062B24D1009B072B1DD0009B072B1CD8AB
:10843000009B062B15D0009B062B16D8009B052B06
:108440000DD0009B052B10D8009B032B03D0009B65
:10845000042B02D009E001230AE0012308E00123F4
:1084600006E0012304E0012302E0012300E00023F1
:10847000184602B0704700BF30010010E00F00F056
:10848000E80F00F03401001082B01B4B1B68DBB218
:1084900001931A4B1B681B0903F00F030093019B08
:1084A000062B24D1009B072B1DD0009B072B1CD82B
:1084B000009B062B15D0009B062B16D8009B052B86
:1084C0000DD0009B052B10D8009B032B03D0009BE5
:1084D000042B02D009E001230AE0002308E0002376
:1084E00006E0002304E0002302E0002300E0002374
:1084F000184602B0704700BFE00F00F0E80F00F030
:1085000082B01B4B1B68DBB201931A4B1B681B0923
:1085100003F00F030093019B062B24D1009B072B34
:108520001DD0009B072B1CD8009B062B15D0009B51
:10853000062B16D8009B052B0DD0009B052B10D8C1
:10854000009B032B03D0009B042B02D009E00123E6
:108550000AE0002308E0002306E0002304E00023F3
:1085600002E0002300E00023184602B0704700BF7D
:10857000E00F00F0E80F00F082B0214B1B68B3F170
:10858000FF3F0AD11F4B1B68DBB201931E4B1B68D8
:108590001B0903F00F03009305E0194B1B680193BF
:1085A0001A4B1B680093019B062B24D1009B072BC1
:1085B0001DD0009B072B1CD8009B062B15D0009BC1
:1085C000062B16D8009B052B0DD0009B052B10D831
:1085D000009B032B03D0009B042B02D009E0002357
:1085E0000AE0002308E0012306E0012304E0012360
:1085F00002E0012300E00023184602B0704700BFEC
:1086000030010010E00F00F0E80F00F0340100101E
:1086100082B0214B1B68B3F1FF3F0AD11F4B1B688F
:10862000DBB201931E4B1B681B0903F00F03009381
:1086300005E0194B1B6801931A4B1B680093019BC3
:10864000062B24D1009B072B1DD0009B072B1CD889
:10865000009B062B15D0009B062B16D8009B052BE4
:108660000DD0009B052B10D8009B032B03D0009B43
:10867000042B02D009E001230AE0012308E00123D2
:1086800006E0012304E0012302E0012300E00023CF
:10869000184602B0704700BF30010010E00F00F034
:1086A000E80F00F03401001082B0214B1B68B3F1D9
:1086B000FF3F0AD11F4B1B68DBB201931E4B1B68A7
:1086C0001B0903F00F03009305E0194B1B6801938E
:1086D0001A4B1B680093019B062B24D1009B072B90
:1086E0001DD0009B072B1CD8009B062B15D0009B90
:1086F000062B16D8009B052B0DD0009B052B10D800
:10870000009B032B03D0009B042B02D009E0012324
:108710000AE0012308E0012306E0012304E001232D
:1087200002E0012300E00023184602B0704700BFBA
:1087300030010010E00F00F0E80F00F034010010ED
:1087400082B0194B1B680193184B1B680093019B67
:10875000062B24D1009B072B1DD0009B072B1CD878
:10876000009B062B15D0009B062B16D8009B052BD3
:108770000DD0009B052B10D8009B032B03D0009B32
:10878000042B02D009E000230AE0002308E00023C4
:1087900006E0012304E0012302E0012300E00023BE
:1087A000184602B0704700BF3001001034010010BD
:1087B00082B0194B1B680193184B1B680093019BF7
:1087C000062B24D1009B072B1DD0009B072B1CD808
:1087D000009B062B15D0009B062B16D8009B052B63
:1087E0000DD0009B052B10D8009B032B03D0009BC2
:1087F000042B02D009E000230AE0002308E0002354
:1088000006E0002304E0012302E0012300E000234E
:10881000184602B0704700BF30010010340100104C
:1088200008B5FFF7C5FF0346002B07D04FF0102314
:108830004FF08042D3F80832C2F8583500BF08BD67
:1088400000BF044BD3F80034002BFAD000BF00BFA8
:10885000704700BF00E0014000B583B00190044ABA
:10886000019BC2F80435FFF7EBFF00BF03B000BD6A
:1088700000E00140024B034A1A6000BF704700BF8E
:10888000682B00200090D00308B5FFF7A1FC034639
:10889000002B06D0964B1B681B0A964A03F01F0359
:1088A0001360FFF7E1FC0346002B02D0924B934A82
:1088B0001A60FFF715FD0346002B06D0904B1B688E
:1088C0005B0B904A03F007031360FFF755FD034667
:1088D000002B05D08C4BDB688B4A23F08073D36070
:1088E000FFF786FD0346002B0ED04FF08043002299
:1088F000C3F80C214FF080430022C3F810214FF041
:1089000080430022C3F83825FFF7BEFD0346002B45
:1089100002D07E4B03221A60FFF7F2FD0346002BC4
:108920000BD07B4B05221A607A4B01221A607A4BDE
:1089300000221A60794B3F221A60FFF71DFE0346A2
:10894000002B76D04FF08053754AD3F80434C2F828
:1089500020354FF08053724AD3F80834C2F82435DA
:108960004FF080536E4AD3F80C34C2F828354FF0DC
:1089700080536B4AD3F81034C2F82C354FF0805333
:10898000674AD3F81434C2F830354FF08053644A44
:10899000D3F81834C2F834354FF08053604AD3F816
:1089A0001C34C2F840354FF080535D4AD3F8203470
:1089B000C2F844354FF08053594AD3F82434C2F8F2
:1089C00048354FF08053564AD3F82834C2F84C3516
:1089D0004FF08053524AD3F82C34C2F850354FF040
:1089E00080534F4AD3F83034C2F854354FF0805397
:1089F0004B4AD3F83434C2F860354FF08053484ABC
:108A0000D3F83834C2F864354FF08053444AD3F871
:108A10003C34C2F868354FF08053414AD3F84034B3
:108A2000C2F86C354FF080533D4AD3F84434C2F855
:108A30007035FFF7EDFD0346002B05D0394B1B6861
:108A4000394A03F04F031360FFF72EFE0346002B55
:108A50000DD04FF08043D3F8003403F00103002B16
:108A600005D04FF080436FF00102C3F80024FFF7F8
:108A700067FE0346002B05D02C4B1B682B4A43F4A2
:108A8000806313602A4BD3F88830294A43F470037B
:108A9000C2F88830BFF34F8F00BFBFF36F8F00BFA6
:108AA000FFF7BEFE4FF01023D3F80032002B05DB9A
:108AB0004FF01023D3F80432002B15DA0120FFF712
:108AC000CBFE4FF010231522C3F80022FFF7B8FEAB
:108AD0004FF010231522C3F80422FFF7B1FE002047
:108AE000FFF7BAFEFFF760FBFFF7C4FE00BF08BD4B
:108AF000240300104035014074C007400DF0ADBAAA
:108B0000440200103C050040F0ED00E0A0050040EC
:108B10001056004088560040185600401456004039
:108B200000C0004058020010E40E00403C17004016
:108B300000ED00E06DDF704700BF184679DF704739
:108B400000BF18467DDF704700BF184664DF7047DE
:108B500000BF184682B003460091ADF80630BDF85C
:108B60000630DAB2009B1A70BDF806301B0A9AB2C2
:108B7000009B0133D2B21A700223184602B070472C
:108B800000B589B0039002911346ADF80630029B00
:108B90001B8803F10902BDF806309A4201D90C2363
:108BA00053E004AB1846FFF7C5FF0790079B0693F9
:108BB000069B002B01D0069B47E0029B1B881A46B0
:108BC000039B134408221A70029B1B8801339AB23C
:108BD000029B1A80029B1B881A46039B13441B228C
:108BE0001A70029B1B8801339AB2029B1A80029B67
:108BF0001B881A46039B981804AB013306221946BA
:108C00000AF0FCFF029B1B8806339AB2029B1A8073
:108C10009DF8103023F00103DBB2002B07D1029B3B
:108C20001B881A46039B134400221A7006E0029B1D
:108C30001B881A46039B134401221A70029B1B884F
:108C400001339AB2029B1A800023184609B000BD76
:108C500000B589B0039002910192ADF80230039BF8
:108C60001B78012B05D1039B5B78002B01D10723D7
:108C700091E0019B1B889A1CBDF802309A420ED8E5
:108C8000039B1B78012B0CD1019B1B881A46039B6D
:108C90005B7813449A1CBDF802309A4201D90C2328
:108CA00079E0019B1B88BDF80220D31A9BB2023BDE
:108CB000ADF81C30BDF81C30ADF81230019B1B889C
:108CC0000233029A13440DF1120211461846FFF7BF
:108CD00039FF0690069B0593059B002B01D0059B51
:108CE00059E0039B1B78022B06D0039B5B781A4646
:108CF000BDF812309A4209D3BDF81230BDF81C20DD
:108D00009A4203D309238DF81F3016E008238DF80B
:108D10001F30039B1B78012B0BD1039B5B781A46FA
:108D2000BDF81C30934204D3039B5B78ADF812303E
:108D300003E0BDF81C30ADF81230BDF81230FE2B48
:108D400001D90C2327E0BDF81230DAB2019B1B8851
:108D50001946029B0B440132D2B21A70019B1B8848
:108D600001339AB2019B1A80019B1B881A46029B11
:108D700013449DF81F201A70019B1B8801339AB27F
:108D8000019B1A80019B1A88BDF8123013449AB2D5
:108D9000019B1A800023184609B000BD00B589B0B8
:108DA000039002911346ADF80630029B1B881A1DF2
:108DB000BDF806309A4201D90C233AE00DF11603B2
:108DC0001846FFF7BBFE0790079B0693069B002BF8
:108DD00001D0069B2DE0029B1B881A46039B13447F
:108DE00003221A70029B1B8801339AB2029B1A80DD
:108DF000029B1B881A46039B134419221A70029B7C
:108E00001B8801339AB2029B1A80BDF81620029B80
:108E10001B881946039B0B4419461046FFF79AFE20
:108E200003461A46029B1B8813449AB2029B1A807F
:108E30000023184609B000BD84B0029101921A4681
:108E400003468DF80F301346ADF80C30019B1B889C
:108E5000DA1CBDF80C309A4201D90C2328E0019BA2
:108E60001B881A46029B134402221A70019B1B881E
:108E700001339AB2019B1A80019B1B881A46029B00
:108E8000134401221A70019B1B8801339AB2019B83
:108E90001A80019B1B881A46029B13449DF80F20E1
:108EA0001A70019B1B8801339AB2019B1A80002320
:108EB000184604B0704784B0029101921A460346E6
:108EC0008DF80F301346ADF80C30019B1B88DA1C6F
:108ED000BDF80C309A4201D90C2328E0019B1B8875
:108EE0001A46029B134402221A70019B1B8801330D
:108EF0009AB2019B1A80019B1B881A46029B13445D
:108F00000A221A70019B1B8801339AB2019B1A80B6
:108F1000019B1B881A46029B13449DF80F201A7070
:108F2000019B1B8801339AB2019B1A8000231846CB
:108F300004B0704700B58DB0039001930B468DF8D7
:108F40000B3013468DF80A3000238DF82B300E9B22
:108F50001B88ADF8283000230B9372E0039B5A68FE
:108F60000B9B9B001A4404AB106818600DF11701AD
:108F700004AB00221846FFF7E9FD0890089B079311
:108F8000079B002B01D0079B7DE09DF817309DF8D3
:108F90000A209A4252D19DF82B30002B03D0002397
:108FA0008DF82A3002E002238DF82A300E9B1B88B0
:108FB0001A469DF817301A449DF82A301A44BDF815
:108FC0003C309A4201DD0C235DE09DF82B3083F0AC
:108FD0000103DBB2002B16D00E9B1B8801339AB223
:108FE0000E9B1A800E9B1B881A46019B13449DF80A
:108FF0000B201A700E9B1B8801339AB20E9B1A80AD
:1090000001238DF82B300E9B1B881A46019B1A44B6
:109010000DF1170104AB1846FFF798FD0890089B67
:109020000693069B002B01D0069B2CE00E9B1B8811
:109030009DF8172013449AB20E9B1A800B9B0133A4
:109040000B93039B1B881A460B9B934286DB9DF870
:109050002B30002B16D00E9B1A88BDF82830D31A5F
:109060009BB2013BADF82630BDF82630FF2B01D96D
:109070000C2308E0BDF82830019A1344BDF82620DF
:10908000D2B21A70002318460DB000BD00B58BB0E7
:10909000059003930B468DF8133013468DF812306C
:1090A0009DF81310BDF8343001930C9B0093039B83
:1090B00002220598FFF73EFF0990099B0893089B41
:1090C000002B01D0089B14E09DF81210BDF834303D
:1090D00001930C9B0093039B10220598FFF72AFF36
:1090E0000990099B0793079B002B01D0079B00E089
:1090F000002318460BB000BD82B00190019B1B8875
:10910000052B0AD9019B1B88B3F5486F07D9019B32
:109110001B884FF6FF72934201D0072325E0019B85
:109120005B88052B0AD9019B5B88B3F5486F07D98B
:10913000019B5B884FF6FF72934201D0072314E036
:10914000019B1B884FF6FF7293420DD0019B5B88F9
:109150004FF6FF72934207D0019B1A88019B5B88F0
:109160009A4201D9072300E00023184602B0704755
:1091700000B587B0039002910192ADF80230019BD7
:109180001B889A1DBDF802309A4201D90C234BE08E
:109190000398FFF7B1FF0590059B0493049B002BF8
:1091A00001D0049B40E0019B1B881A46029B13449C
:1091B00005221A70019B1B8801339AB2019B1A8009
:1091C000019B1B881A46029B134412221A70019BB2
:1091D0001B8801339AB2019B1A80039B1A88019B5A
:1091E0001B881946029B0B4419461046FFF7B2FC38
:1091F00003461A46019B1B8813449AB2019B1A80AE
:10920000039B5A88019B1B881946029B0B441946F5
:109210001046FFF79FFC03461A46019B1B88134428
:109220009AB2019B1A800023184607B000BD00B512
:1092300087B0039002910192ADF80230039B9B88A6
:1092400002330593019B1B881A46059B13449A1C05
:10925000BDF802309A4201D90C2353E0059BFE2B46
:1092600001D90C234EE0059BDAB2019B1B881946FD
:10927000029B0B440132D2B21A70019B1B8801334E
:109280009AB2019B1A80019B1B881A46029B1344C9
:10929000FF221A70019B1B8801339AB2019B1A802E
:1092A000039B1A88019B1B881946029B0B44194695
:1092B0001046FFF74FFC03461A46019B1B881344D8
:1092C0009AB2019B1A80039B9B88002B19D0039BA9
:1092D0009B68002B01D1072314E0019B1B881A46D1
:1092E000029B9818039B9968039B9B881A460AF077
:1092F00085FC019B1A88039B9B8813449AB2019BAF
:109300001A800023184607B000BD00B589B003904D
:1093100002910192ADF80230039B9B6A002B01D1B0
:10932000072371E000238DF81F3065E0039B996AE5
:109330009DF81F2013465B0013449B000B440693CB
:10934000069B9B8802330593059BFE2B01D90C23BA
:109350005AE0059BDAB2019B1B881946029B0B441D
:109360000132D2B21A70019B1B8801339AB2019B61
:109370001A80019B1B881A46029B134416221A70FE
:10938000019B1B8801339AB2019B1A80069B1A88A5
:10939000019B1B881946029B0B4419461046FFF798
:1093A000D9FB03461A46019B1B8813449AB2019BC2
:1093B0001A80069B9B88002B19D0069B9B68002B6C
:1093C00001D1072320E0019B1B881A46029B9818B5
:1093D000069B9968069B9B881A460AF00FFC019B26
:1093E0001A88069B9B8813449AB2019B1A809DF8A9
:1093F0001F3001338DF81F30039B93F82C309DF8FC
:109400001F209A4292D30023184609B000BD00B530
:1094100095B005900491039200231393039B1B883E
:10942000ADF84A30039B00221A80059B93F82D303B
:10943000002B0ED0BDF84A301A4603990498FFF766
:109440009FFB1390139B1193119B002B01D0119B39
:10945000D8E0059B9B78002B0ED0BDF84A301A4609
:1094600003990498FFF79AFC1390139B1093109B99
:10947000002B01D0109BC5E0059BDB78002B10D0A2
:10948000059BDB7858B2BDF84A30039A0499FFF780
:10949000D3FC1390139B0F930F9B002B01D00F9BBA
:1094A000B0E0059B5B68002B11D0059B5B6893F9CE
:1094B0000000BDF84A30039A0499FFF7FCFC1390B2
:1094C000139B0E930E9B002B01D00E9B9AE0059BE5
:1094D0001B89002B14D0059B03F10800BDF84A300E
:1094E0000193039B0093049B06220221FFF7CEFD0C
:1094F0001390139B0D930D9B002B01D00D9B81E0CE
:10950000059B1B8A002B14D0059B03F11000BDF8AE
:109510004A300193039B0093049B07220321FFF72A
:10952000B5FD1390139B0C930C9B002B01D00C9B4F
:1095300068E0059B1B8B002B14D0059B03F11800E2
:10954000BDF84A300193039B0093049B152214211C
:10955000FFF79CFD1390139B0B930B9B002B01D0EB
:109560000B9B4FE0059B1B6A002B0FD0059B186AD5
:10957000BDF84A30039A0499FFF7FAFD1390139B44
:109580000A930A9B002B01D00A9B3BE0059B5B6A78
:10959000002B0FD0059B586ABDF84A30039A0499F6
:1095A000FFF745FE1390139B0993099B002B01D0F5
:1095B000099B27E0059B93F82C30002B0ED0BDF8BB
:1095C0004A30039A04990598FFF79FFE1390139B66
:1095D0000893089B002B01D0089B13E0059B1B7888
:1095E000002B0ED0BDF84A30039A04990598FFF776
:1095F0002FFB1390139B0793079B002B01D0079B16
:1096000000E0139B184615B000BD86B00390019290
:109610001A460B46ADF80A3013468DF80930039B05
:10962000002B02D0019B002B01D100235CE0002322
:10963000ADF816300CE0BDF81630039A13441B78D1
:109640001A46BDF8163013449BB20133ADF81630FC
:10965000BDF816305A1CBDF80A309A420FDA019B49
:109660001B88BDF816209A42E5D3BDF816300133A9
:10967000039A13441B789DF809209A42DBD1BDF868
:109680001620BDF80A309A4201D300232CE0BDF821
:1096900016300233ADF81230BDF81630039A134479
:1096A0001B78002B08D0BDF81630039A13441B78A2
:1096B000013BADF8143002E00023ADF81430BDF8E2
:1096C0001430002B08D0BDF81220BDF814301A4415
:1096D000BDF80A309A4201DD002305E0019BBDF888
:1096E00012201A80BDF81430184606B0704700B535
:1096F00085B001900B46ADF8023013468DF801306D
:109700000023ADF80C309DF8013003AABDF802101B
:109710000198FFF77AFF0346ADF80E30BDF80E3022
:10972000002B01D1002304E0BDF80C301A46019B48
:109730001344184605B000BD72DF704700BF1846DD
:1097400073DF704700BF184674DF704700BF1846CC
:1097500082B00190019B93F83034184602B07047F4
:1097600084B00190002303930AE0019A039B134401
:109770001B78002B01D0012306E0039B01330393E8
:10978000039B052BF1D90023184604B07047000055
:1097900082B003468DF807309DF807305A1C074BFE
:1097A00083FB02135910D317C91A0B469B000B44B5
:1097B000D11ACBB2184602B0704700BF6766666622
:1097C00082B001900091009BDB7B012B04D1009BB8
:1097D0009A88019BA3F8242400BF02B0704700B50B
:1097E00085B001900091019B002283F82E24009BFC
:1097F0009A88019BB3F824349A4216D1019B1B79B5
:1098000083F00103DBB2002B0FD00121019800F09F
:10981000A7FA0390039B002B07D0019B9B6B002BA7
:1098200003D0019B9B6B0398984700BF05B000BD18
:1098300000B585B001900091009B1B88262B1ED19E
:10984000009B1B7A012B03D0009B1B7A022B17D1A4
:10985000019B9B781846FFF79BFF0346194601982A
:1098600000F07EFA0390039B002B09D0019B9B6BB9
:10987000002B05D0019B9B6B0398984700E000BF2D
:1098800005B000BD00B585B001900B468DF80330E2
:10989000019B03F227431846FFF762FF03468DF84A
:1098A0000F309DF80330042B2CD0042B30DC032B1D
:1098B00022D0032B2CDC012B02D0022B12D027E06C
:1098C000019B9B79002B0DD0019B93F8243083F0F2
:1098D0000103DBB2002B05D09DF80F30002B01D027
:1098E000012316E0019BDB79002B05D09DF80F309A
:1098F000002B01D002230CE0019B1B7A002B01D02E
:10990000032306E0019B5B7A002B01D0042300E0D7
:109910000023184605B000BD82B001900091019B64
:10992000012283F83120019B0022C3F82024019BEF
:1099300003F22642009B5A60009B00229A60009B23
:1099400002221A70009B80229A810023184602B0DE
:10995000704782B001900091019B022283F8312070
:10996000019B93F82430002B03D0009B07221A7030
:1099700002E0009B03221A70019B1B699AB2009BB4
:109980009A81019B0022C3F82024019B03F2264206
:10999000009B5A60019BDA68009B9A60002318467E
:1099A00002B0704700B583B00190019B5B79002B3A
:1099B0000FD0019B93F82E3483F00103DBB2002B10
:1099C00007D00198FFF7C4FE0346002B01D0012306
:1099D00000E0002303F00103DBB2184603B000BD32
:1099E00000B585B001900B468DF80330019BD3F88C
:1099F0001004019BB3F8143401221946FFF777FED7
:109A00000390039B002B03D0039B9DF803201A7047
:109A1000019B03F15400019B03F58261019B3C33E0
:109A20001A46FFF789FE0346184605B000BD00B58B
:109A300085B001900091019B5A69009B9A60019B3F
:109A40009B699AB2009B9A81019B93F82430002B6A
:109A500004D0019B062283F83C2003E0019B0122F5
:109A600083F83C200198FFF79DFF0346002B13D09D
:109A7000009B02221A7504210198FFF7B1FF0390A1
:109A8000039B0293029B002B01D0029B0FE0019BE2
:109A9000052283F8312003E0019B032283F8312063
:109AA000019B03F58262019BC3F820240023184622
:109AB00005B000BD00B585B001900091019BDA6949
:109AC000009B9A60019B1B6A9AB2009B9A81019B42
:109AD00093F82430002B04D0019B062283F83C200D
:109AE00003E0019B012283F83C200198FFF75AFF15
:109AF0000346002B13D0009B02221A750421019803
:109B0000FFF76EFF0390039B0293029B002B01D093
:109B1000029B0FE0019B062283F8312003E0019BAA
:109B2000042283F83120019B03F58262019BC3F874
:109B300020240023184605B000BD82B00190019B8F
:109B40009B78002B06D0019B93F82030002B01D08E
:109B500000230AE0019B9B6A042B03D0019B5B6AF4
:109B6000042B01D1002300E00123184602B0704706
:109B700084B00190019B93F82430002B03D0EE2396
:109B8000ADF80E3002E01F23ADF80E30BDF80E30F8
:109B9000184604B0704782B001900B468DF8033030
:109BA000019B9DF8032083F8302000BF02B070476E
:109BB00030B587B001900091009B002B02D0019B33
:109BC000002B01D10E23B8E0009B78331846FFF735
:109BD000B4FF034683F00103DBB2002B01D007235F
:109BE000ABE0019B00229A70019A009B141D03F1C7
:109BF00078050FCD0FC40FCD0FC495E8070084E89A
:109C00000700019B002283F83020009BD3F8A4209A
:109C1000019B5A63009BD3F8A820019B9A63019B88
:109C20004FF6FF72A3F82424019B03F58262019B87
:109C3000C3F82024019B03F2264307220021184683
:109C40000AF00EF8019B1B7883F00103DBB2002BB6
:109C500003D0019BFF2283F85420019B03F155029E
:109C6000019BC3F810240198FFF782FF03461A46B0
:109C7000019BA3F814240098019B03F15501019B5B
:109C800003F214431A46FFF7C2FB0590059B0493A9
:109C9000049B002B01D0049B4FE0019B03F2312277
:109CA000019BC3F818240198FFF762FF03461A4688
:109CB000019BA3F81C24009B03F13C00019BD3F8FB
:109CC0001814019B03F21C431A46FFF7A0FB0590F2
:109CD000059B0393039B002B01D0039B2DE0019B6D
:109CE000012283F85120019B9B699AB2019BA3F842
:109CF0004820019B012283F83C20019B00221A642A
:109D0000019B002283F85020019B5A69019B5A64F1
:109D1000019B03F15400019B3C331A460021FFF7DD
:109D20000BFD0590059B0293029B002B01D0029B2B
:109D300003E0019B01221A70059B184607B030BD55
:109D400082B00190019B1B68012B03D0019B1B6813
:109D5000022B01D1012300E00023184602B0704716
:109D600000B585B001900B468DF80330019B1B7840
:109D700083F00103DBB2002B01D008230AE1019B31
:109D80009DF803209A70019B03F2264307220021CD
:109D9000184609F065FF019B9B79002B03D0019BBE
:109DA0009B78012B0FD0019BDB79002B03D0019B0B
:109DB0009B78012B07D0019BDB79002B14D0019BF2
:109DC0009B78022B10D1019B5B6B002B08D0019B71
:109DD000012283F82D24019B5B6B0820984703E048
:109DE000019B002283F82D249DF803301946019829
:109DF000FFF748FD03461A46019B9A70019B5B6B77
:109E0000002B20D0019B9B78032B03D0019B9B78D8
:109E1000042B18D1019B5B79002B14D0019B93F884
:109E20002E3483F00103DBB2002B0CD0019B002207
:109E300083F83024019B012283F82F24019B5B6B64
:109E40000720984703E0019B002283F82F24019B01
:109E50003C3318220021184609F002FF019B012221
:109E600083F83C20019B2C331846FFF769FF03461B
:109E7000002B06D0019BDB6ADAB2019B83F85120EC
:109E800003E0019B012283F85120019B93F82430C9
:109E9000002B12D0019B28331846FFF751FF0346D1
:109EA000002B06D0019B9B6ADAB2019B83F85220FB
:109EB00003E0019B012283F85220019B002283F8DA
:109EC0005020019B9B78042B25D0042B30DC032BE6
:109ED00019D0032B2CDC022B0DD0022B28DC002BFD
:109EE00021D0012B24D1019B3C3319460198FFF767
:109EF00013FD03901DE0019B3C3319460198FFF7C9
:109F000028FD039015E0019B3C3319460198FFF7AB
:109F10008EFD03900DE0019B3C3319460198FFF73D
:109F2000C9FD039005E0019B002283F8312000E089
:109F300000BF019B9B78002B20D0019B03F15400B4
:109F4000019BD3F82014019B3C331A46FFF7F4FB26
:109F50000390039B002B01D0039B1BE0019B93F814
:109F60005420019B93F8303019461046FFF7E8FB68
:109F70000390039B002B01D0039B0BE0019B5B6BC9
:109F8000002B06D0019B5B6B019A92F831201046A2
:109F900098470023184605B000BD00B585B0019074
:109FA0000091009B0393019B1B88262B10D0262B2E
:109FB00013DC102B02D0112B05D00EE00199039871
:109FC000FFF7FEFB0AE001990398FFF708FC05E0A4
:109FD00001990398FFF72CFC00E000BF00BF05B01B
:109FE00000BD00B585B00190019B93F85430184630
:109FF000FFF7AAFB019B012283F82E24019B00227C
:10A0000083F83024019B002283F850200621019818
:10A01000FFF7E6FC0390039B0293029B002B01D009
:10A02000029B12E0019B9B7819460198FFF798FE6E
:10A030000390039B002B07D0019B9B6B002B03D04D
:10A04000019B9B6B039898470023184605B000BD01
:10A0500075DF704700BF184676DF704700BF1846AF
:10A060007ADF704700BF18467BDF704700BF184695
:10A0700084B00346ADF806300023039316E00F4981
:10A08000039A13469B0013449B000B441B88BDF8A6
:10A0900006209A4207D1039A13469B0013449B0063
:10A0A000064A134406E0039B01330393039B002BF2
:10A0B000E5D00023184604B0704700BFB03300203D
:10A0C00082B001900B46ADF80230019BBDF8022032
:10A0D0001A80019B00221A72019B054903F10A02B2
:10A0E0000B4603CB1060516000BF02B0704700BF49
:10A0F000E033002082B00190019B4FF6FF721A807E
:10A1000000BF02B0704788B00390029111461A4612
:10A110000B46ADF806301346ADF80430039B9B8820
:10A120001A46BDF8063013440793039B9B881946D3
:10A13000039B9B88BDF80620934228BF13469BB221
:10A14000CB1A0693039BDB881A46BDF804301344F0
:10A150000593039BDB881946039BDB88BDF804202D
:10A16000934228BF13469BB2CB1A0493029B5A8892
:10A17000039B1B889A4205D3029B5A88039B5B88EA
:10A180009A4201D900231CE0029B9B881A46069B39
:10A19000934205D8029B9B881A46079B934201D2A3
:10A1A00000230EE0029BDB881A46049B934205D8ED
:10A1B000029BDB881A46059B934201D2002300E0F4
:10A1C0000123184608B0704700B583B00190054BD5
:10A1D0009B69002B03D0034B9B690198984700BFF4
:10A1E00003B000BDC433002000B585B00346009124
:10A1F000ADF80630BDF8063000991846FFF728FF85
:10A200000390039B002B05D0039B112B02D00398D6
:10A21000FFF7DAFF039B002B0CBF01230023DBB207
:10A22000184605B000BD000000B589B00190019B43
:10A230000793079B9BB21846FFF71AFF0690069BF1
:10A24000002B42D0069B1A7A214B1B7B9A4215D2D7
:10A25000079B9AB2069B0A3319461046FFF7C4FFC4
:10A2600003468DF813309DF81330002B2DD0069B3C
:10A270001B7A0133DAB2069B1A7226E0069B002293
:10A280001A72134B1B7C002B0FD0079B9BB23B21F8
:10A290001846FFF7E1FE0590059B002B05D0059BB6
:10A2A000082B02D00598FFF78FFF094B5B69002B45
:10A2B0000BD000238DF80C30079B9BB2ADF80E300D
:10A2C000034B5B6903AA1046984700BF09B000BD65
:10A2D000C433002030B587B00190019B002B01D121
:10A2E0000E2353E02B4A019B14461D460FCD0FC48D
:10A2F00095E8070084E80700264B274A1A60019B6F
:10A300001B68002B11D0019B1B681846FFF7A8FEA5
:10A310000490049B002B01D0049B37E0019B1A683A
:10A320001D4B1068516803C308E01B48FFF79CFEF3
:10A330000490049B002B01D0049B27E0002305938D
:10A3400020E0059A13469B0013449B00134A1344D4
:10A3500003930398FFF7CEFE059B5B01104A1A4456
:10A36000039B5A60039B04330E4A0021184605F0F4
:10A3700011FB0490049B002B01D0032306E0059BF6
:10A3800001330593059B002BDBD00023184607B053
:10A3900030BD00BFC4330020E0330020B0330020C4
:10A3A0009033002029A2020000B587B00346009137
:10A3B000ADF80630009B5B7A002B1AD1009B1B7A0C
:10A3C000002B03D1164B5B68059302E0144B9B688E
:10A3D0000593009B5B68BDF806200599184605F0BB
:10A3E00013FB0490049B002B16D00498FFF7ECFE9F
:10A3F00012E0009B00221A72094B5B69002B0BD004
:10A4000001238DF80C30BDF80630ADF80E30044B4A
:10A410005B6903AA1046984700BF07B000BD00BFA4
:10A42000C433002000B585B00190019BDB7B8DF823
:10A430000F30019B9B88ADF80C309DF80F30012B3D
:10A440002CD14FF6FF70FFF713FE0290029B002BFA
:10A4500003D10420FFF7B8FE21E0BDF80C30194607
:10A460000298FFF72DFE029B03F10A00019B03F106
:10A4700010014FF6FF7340F2F312FFF744FE03465C
:10A480001A46029B5A72074BDB89002B07D1BDF895
:10A490000C3002991846FFF787FF00E000BF05B0B7
:10A4A00000BD00BFC433002000B587B00190019B00
:10A4B0009B88ADF81630BDF816301846FFF7D8FD6A
:10A4C0000490049B002B0ED0049B5B68184605F09B
:10A4D000F3FA0390039B002B02D00398FFF774FE5E
:10A4E0000498FFF707FE00BF07B000BD00B587B0B6
:10A4F0000190019B06330593059B1A88194BDB8954
:10A500009A422BD1059B5B89022B27D1019B9B880B
:10A51000ADF81230BDF812301846FFF7A9FD0390D0
:10A52000039B002B1AD0059B0C33184600F059FAF8
:10A530000346002B06D0BDF8123003991846FFF7EA
:10A5400033FF0BE0039B5B68184605F0B5FA0290F9
:10A55000029B002B02D00298FFF736FE00BF07B027
:10A5600000BD00BFC433002000B585B00190019B41
:10A570009B88ADF80E30BDF80E301846FFF778FD19
:10A580000290029B002B15D0029B03F10A00019B55
:10A5900003F108014FF6FF7340F2F312FFF7B3FD2A
:10A5A00003461A46029B5A72BDF80E3002991846AD
:10A5B000FFF7FAFE00BF05B000BD00B583B0019003
:10A5C0000091019B1B88502B12D0502B18DC122BB2
:10A5D00012D0122B14DC102B02D0112B04D00FE060
:10A5E0000198FFF71FFF0CE00198FFF75DFF08E0FF
:10A5F0000198FFF77BFF04E00198FFF7B5FF00E04B
:10A6000000BF00BF03B000BD30B58FB00190009116
:10A6100000230293009B002B1AD000230D9314E01B
:10A620006B460D99184606F074FA0346002B09D0C4
:10A63000029B5A1C02920D9A92B25B0038336B4413
:10A6400023F82C2C0D9B01330D930D9B132BE7D975
:10A65000019B1D4602AC0FCC0FC50FCC0FC594E873
:10A66000070085E8070001980FB030BD00B583B042
:10A670000346ADF80630BDF80630132B01D9002390
:10A680000CE0BDF806301946064806F013FABDF88E
:10A6900006301946044806F00DFA0123184603B0A7
:10A6A00000BD00BFF0330020EC33002000B585B0C2
:10A6B0000346ADF80630002303930DE0039B9B0097
:10A6C000094A13440433BDF806201146184606F023
:10A6D00008FA039B01330393039B1D2BEED900BFA4
:10A6E00000BF05B000BD00BFE833002000B583B057
:10A6F0000346ADF80630BDF806301946024806F0AC
:10A70000F0F900BF03B000BDF033002030B59BB0BE
:10A71000184B9B68DB431893164B5A6818AB1146CD
:10A72000184606F050FA189A6B4611461846FFF77D
:10A730006BFF0DAC6D460FCD0FC40FCD0FC495E868
:10A74000070084E80700002319930BE0199B5B00C6
:10A7500068336B4433F8303C1846FFF7A7FF199B6A
:10A76000013319930D9B199A9A42EFD300BF00BF92
:10A770001BB030BDE833002000B583B001900B461C
:10A78000ADF8023013468DF801309DF80130002BF2
:10A7900006D0BDF802301946019806F08BF905E0A5
:10A7A000BDF802301946019806F09BF900BF03B0CE
:10A7B00000BD000000B585B001900091019B9B8811
:10A7C000ADF80E30019B1B881A2B2ED01A2B71DC92
:10A7D000192B59D0192B6DDC102B02D0112B1ED048
:10A7E00068E0FFF793FFBDF80E301846FFF73EFF15
:10A7F000034683F00103DBB2002B05D02F4AF02182
:10A80000042004F041FC52E0019BDB7B022B4ED183
:10A81000BDF80E3019462A4806F04CF947E0BDF85D
:10A820000E301846FFF762FF44E0019B1B7AC3F32A
:10A830000313DBB28DF80D309DF80D30032B8CBF68
:10A8400001230023DAB2BDF80E3019461D48FFF788
:10A8500093FF9DF80D30022B8CBF01230023DAB249
:10A86000BDF80E3019461848FFF786FF9DF80D30E9
:10A87000012B8CBF01230023DAB2BDF80E3019463C
:10A880001248FFF779FF15E0019B1B7A002B10D1CE
:10A89000019B5B7AC3F3C0038DF80C309DF80C204C
:10A8A000BDF80E3019460748FFF766FF01E000BF0C
:10A8B00000E000BF00BF05B000BD00BF1C420300A8
:10A8C000F433002000340020FC330020F833002053
:10A8D00000B583B00346ADF80630BDF80630132B43
:10A8E00001D9002306E0BDF806301946034806F0FA
:10A8F00010F90346184603B000BD00BFEC3300203A
:10A9000000B583B00346ADF80630BDF806301846F2
:10A91000FFF7DEFF0346002B02D0BDF8063000E053
:10A920001423184603B000BD00B587B003900B4652
:10A930000192ADF80A30019B002B01D10E2338E0C3
:10A94000019B00221A60039B002B01D10E2330E0F3
:10A95000039B1B68002B01D10E232AE0039BDB889D
:10A9600003F003039BB2002B01D0072321E0BDF8C5
:10A970000A301846FFF7C4FF03468DF817309DF8DC
:10A980001730142B01D1052313E0039B1B799DF88D
:10A9900017209A4201D304230BE0039B1B689DF808
:10A9A00017200399C98801FB02F21A44019B1A601F
:10A9B0000023184607B000BD82B00190019B1B78B0
:10A9C0001AB2019B01331B781BB21B021BB213434B
:10A9D0001BB29BB2184602B07047AADF704700BF97
:10A9E000184600B585B001900198FFF7E5FF0346D2
:10A9F000ADF80E30BDF80E3003F00103DBB218469F
:10AA000005B000BD82B0034600918DF80730009A72
:10AA1000137823F00F031370009A137823F0F003D8
:10AA200013709DF80730052B51D0052B5DDC042BEE
:10AA300040D0042B59DC032B2FD0032B55DC022BE9
:10AA40001ED0022B51DC002B02D0012B0BD04CE08E
:10AA5000009A137823F00F031370009A137823F0F1
:10AA6000F003137040E0009A1378012161F30303AF
:10AA70001370009A1378012161F30713137033E008
:10AA8000009A1378012161F303031370009A13787D
:10AA9000022161F30713137026E0009A1378012155
:10AAA00061F303031370009A1378032161F3071312
:10AAB000137019E0009A1378022161F303031370F5
:10AAC000009A1378012161F3071313700CE0009AC8
:10AAD0001378022161F303031370009A13780221A3
:10AAE00061F30713137000BF00BF00BF02B07047CF
:10AAF00000B595B0034602910192ADF80E30029B6D
:10AB00009B78002B03D101238DF81E3003E0029BBC
:10AB10009B788DF81E30029B1B88ADF81C3006AB6D
:10AB200003220021184609F09BF8029B5B7C06AAD1
:10AB300011461846FFF766FF029B9A7C06AB01336D
:10AB400019461046FFF75EFF029BDA7B9DF81A302C
:10AB500062F3C3038DF81A30029B1A7C9DF81A30F9
:10AB600062F304138DF81A30029B1A7B9DF81A3099
:10AB700062F300038DF81A30029B1B7D002B01D07D
:10AB8000022200E001229DF81A3062F342038DF8A0
:10AB90001A300DAB1C220021184609F061F8029B07
:10ABA0005B7B03F01003DBB2002B06D1029B5B7BC7
:10ABB00003F02003DBB2002B24D004AB03220021DE
:10ABC000184609F04DF8029BDA7C04AB01331946B4
:10ABD0001046FFF717FF9DF81030012262F30303C0
:10ABE0008DF810309DF81030012262F307138DF8B4
:10ABF00010309DF81230012262F342038DF81230BA
:10AC000004AB1293029B5B7B8DF83430029B9B7BE1
:10AC10008DF8353008AB14220021184609F020F8D1
:10AC200007AB089306AB0993029B9B88ADF82C30C9
:10AC3000029B9B68002B06D0029BDB88ADF8283076
:10AC4000029B9B680C93029B9B69002B4FD005AB2A
:10AC500003220021184609F003F8029B9B691B8818
:10AC6000ADF83C30029B9B695B88ADF83E30029B9F
:10AC70009B695B680E9305AB1193029B9B691B7BE1
:10AC800005AA11461846FFF7BDFE029B9B695A7B39
:10AC900005AB013319461046FFF7B4FE029B9B69D2
:10ACA0009A7A9DF8163062F3C3038DF81630029B32
:10ACB0009B69DA7A9DF8163062F304138DF816302A
:10ACC000029B9B691A7A9DF8163062F300038DF897
:10ACD0001630029B9B699B7B002B01D0022200E077
:10ACE00001229DF8163062F342038DF81630029B64
:10ACF000DB69002B02D0029BDB69109308AA0DA927
:10AD0000BDF80E00019BFFF768FE0346184615B01C
:10AD100000BD90DF704700BF1846A5DF704700BF39
:10AD20001846B5DF704700BF184682B00190019BFE
:10AD3000F7221A80019B17225A80019B00221A7168
:10AD4000019B00225A71019BFB229A71019B1B22DD
:10AD5000DA7100BF02B0704730B589B003460A46C9
:10AD6000ADF806301346ADF80430BDF80430ADF848
:10AD70001430BDF80430ADF816300023ADF81830AB
:10AD80000023ADF81A3003AB00221A609A8003AAA0
:10AD900005A9BDF806301846FFF7BBFF0790079BD3
:10ADA000002B39D01E4A1F4BD31ADB081B0443F07B
:10ADB0000104BDF80650079806F040FF03462A46F6
:10ADC0001949204607F0F9FBBDF80C30002B03D1E0
:10ADD000BDF80E30002B0ED0114A124BD31ADB08EF
:10ADE0001B0443F00100BDF80C301A46BDF80E30CC
:10ADF0000E4907F0E2FBBDF81030002B0CD0084ADA
:10AE0000084BD31ADB081B0443F00103BDF81020E4
:10AE10000749184607F0C1FB079B184609B030BD2B
:10AE2000543E0300043E0300A0420300EC42030032
:10AE30002C43030010B586B001900091009B9B88C5
:10AE4000ADF80E30BDF80E30DB00019A1344063326
:10AE50000593019B1A79059B9A71009BDB7B012B63
:10AE600002D0022B05D009E0019B1A88059B1A80AD
:10AE700004E0019B5A88059B1A8000BF059B1A8835
:10AE8000059B5B889A4226D9059B1A88BDF80E302F
:10AE900011461846FFF741FF0490049B002B03D195
:10AEA000059B01225A7116E0049B112B03D1059BCF
:10AEB00001221A710FE0114A114BD31ADB081B044F
:10AEC00043F00104049806F0B9FE03461A460D4902
:10AED000204607F062FB059B9A79059BDB799A4235
:10AEE00008D9059B9B791A46BDF80E3011461846C5
:10AEF000FFF732FF00BF06B010BD00BF543E030095
:10AF0000043E03008443030000B583B00190009128
:10AF1000009B9B88DB00019A134406331846FFF719
:10AF200004FF00BF03B000BD00B587B001900091E1
:10AF3000009B9B88ADF81630009B5B89ADF8143000
:10AF4000BDF81630DB00019A134406330493049BCA
:10AF50001B88BDF81420934228BF13469AB2049B65
:10AF60005A80049B5B88172B38BF17239AB2049B27
:10AF70005A80019B1B69002B15D0049B5B79002B29
:10AF800011D040F67723ADF80830BDF81630ADF893
:10AF90000A30049B5B88ADF80C30019B1B6902AA48
:10AFA000114601989847049B00225A71049B002285
:10AFB0001A7100BF07B000BD10B588B001900091B4
:10AFC000009B9B88ADF81A30009BDB88ADF81830E9
:10AFD000BDF81A30DB00019A134406330593BDF81F
:10AFE0001830172B38BF1723ADF81830059B1B8876
:10AFF000BDF81820934228BF13469AB2059B5A8089
:10B00000059B00221A71059B1A88BDF81A3011465B
:10B010001846FFF786FE0790079B002B0FD0174AB4
:10B02000174BD31ADB081B0443F00104079806F002
:10B0300005FE03461A461349204607F0AEFA059B63
:10B040005B79002B16D1019B1B69002B13D040F6B6
:10B050007723ADF80C30BDF81A30ADF80E30059BF3
:10B060005B88ADF81030019B1B6903AA114601985B
:10B07000984700E000BF08B010BD00BF543E030079
:10B08000043E0300B843030030B591B00190009135
:10B09000009B04AC1D1D0FCD0FC40FCD0FC495E850
:10B0A000070084E80700BDF81030ADF83E30BDF869
:10B0B0001420BDF83E30D1B2019ADB0013440A4699
:10B0C0005A73019B1B69002B15D04DF67A23ADF8FE
:10B0D0000830BDF83E30ADF80A30BDF83E30019A78
:10B0E000DB0013445B7B8DF80C30019B1B6902AACB
:10B0F00011460198984700BF11B030BD00B587B028
:10B1000001900091009B04330593059B1B88DB0095
:10B11000019A134406330493059B9B888DF80F30E6
:10B12000049B9B799DF80F20934228BF13468DF80E
:10B130000E30059B1B889DF80E2092B211461846D2
:10B14000FFF70AFE00BF07B000BD00B585B0019053
:10B150000091019B002B01D10E231DE0019B009A61
:10B160001A61019BF7221A80019BF7225A80019BEA
:10B17000FB221A71002303930AE0039BDB00019A70
:10B18000134406331846FFF7D0FD039B01330393A6
:10B19000039B002BF1D00023184605B000BD82B000
:10B1A00001900B46ADF80230019B002B01D10E231C
:10B1B0000EE0BDF80230162B03D9BDF80230F72B94
:10B1C00001D9072304E0019BBDF802201A80002367
:10B1D000184602B07047000010B586B0019000918B
:10B1E000009B0593019B9B88ADF81230BDF812308F
:10B1F000002B70D1019B1B88552B21D0552B2EDCA9
:10B200003A2B18D03A2B2ADC242B1ED0242B26DCF8
:10B21000232B1FD0232B22DC102B02D0112B05D087
:10B220001DE001990598FFF705FE19E001990598C1
:10B23000FFF76AFE14E001990598FFF775FE0FE02D
:10B2400001990598FFF7B8FE0AE001990598FFF704
:10B250001BFF05E001990598FFF750FF00E000BFD4
:10B26000BDF81230059ADB0013449B7A002B33D0D3
:10B27000BDF81230059ADB001344DA88BDF81230AD
:10B2800011461846FFF749FD0390039B002B0ED192
:10B29000BDF81230059ADB00134400229A72BDF803
:10B2A0001230059ADB0013440122DA7214E0039B8A
:10B2B000112B11D0094A0A4BD31ADB081B0443F0A7
:10B2C0000104039806F0BAFC03461A4605492046D5
:10B2D00007F063F900E000BF06B010BD543E030064
:10B2E000043E030084430300B0DF704700BF1846EC
:10B2F00066DF704700BF184682B001900091019B45
:10B30000002B01D10E2316E0009B002B01D10E2350
:10B3100011E0019B1B78DE2B01D108230BE0009B81
:10B320001A68019B5A60019BDE221A70019B4FF63E
:10B33000FF725A800023184602B0704782B0019015
:10B340000B46ADF80230019B002B01D10E230AE021
:10B35000019B1B78DE2B01D0082304E0019BBDF884
:10B3600002205A800023184602B0704700B585B00D
:10B370000190019B1B7A002B18D0019B5B88002158
:10B380001846FFF7B5FF0390039B002B03D1019BE9
:10B3900000221A720AE0039B112B03D1019B0122A8
:10B3A0001A7203E0019B5B680398984700BF05B0E1
:10B3B00000BD00B583B001900091009B1B79012B6B
:10B3C0000BD1009B1A88019B5B889A4205D1019B97
:10B3D00001221A720198FFF7C9FF00BF03B000BD38
:10B3E00082B00190009100BF02B0704700B589B0F3
:10B3F00001900091009B1A88019B5B889A4236D18C
:10B40000009B02330793079B1B78022B31D1079BCC
:10B410001B7A042B07D0079B1B7A062B03D0079BB4
:10B420001B7A052B27D102AB00221A605A609A6062
:10B43000DA6002238DF808304FF4C073ADF80C3099
:10B44000079B1B7A052B02D10023ADF80C30009B23
:10B450001B8802AA11461846FFF746FF0690069B76
:10B46000002B09D0019B5B680698984704E000BF59
:10B4700002E000BF00E000BF09B000BD00B585B02C
:10B4800001900091009B002B43D0019B002B40D0EA
:10B49000009B0393039B1B78DE2B3AD1019B9A8878
:10B4A000039B5B889A4202D10398FFF75FFF019BE1
:10B4B0001B88512B18D0512B28DC112B1BD0112BA2
:10B4C00024DC012B02D0022B07D01FE0019B0433A8
:10B4D00019460398FFF76DFF1BE0019B04331946E3
:10B4E0000398FFF77DFF14E0019B0433194603988E
:10B4F000FFF77CFF0DE0019B9A88039B5B889A42D3
:10B5000006D1039B4FF6FF725A8001E000BF00E0B6
:10B5100000BF05B000BDA8DF704700BF1846ADDF13
:10B52000704700BF1846AEDF704700BF184662DFA5
:10B53000704700BF1846000000B591B0039002911B
:10B5400000230593724A734BD31ADB081B0443F0A4
:10B5500003037149184607F013F86D4A6D4BD31A6F
:10B56000DB081B0443F00300029A029B9B886B4993
:10B5700007F023F8039B5869029B9B8805AA19468C
:10B58000FFF7D2F90F90624A624BD31ADB081B0413
:10B5900043F00300029A029B9B88614907F00DF873
:10B5A0000F9B002B0CD05A4A5A4BD31ADB081B04B2
:10B5B00043F00100029B9B881A465A4906F0EDFFB2
:10B5C000534A544BD31ADB081B0443F00300029B7D
:10B5D0009B881A46039B1B89009313460F9A524976
:10B5E00006F0FEFF07AB08220021184608F038FBE2
:10B5F00006AB08930223ADF81C300023ADF81E30D3
:10B60000029B9888039B1B8907AA1946FFF787FFAF
:10B610000F900F9B002B11D03D4A3E4BD31ADB08F5
:10B620001B0443F00300029B9B881A46039B1B8963
:10B63000009313460F9A3C4906F0D2FF039B9B6987
:10B64000002B0BD0324A334BD31ADB081B0443F0D8
:10B6500003033649184606F093FF0AE02C4A2D4BA7
:10B66000D31ADB081B0443F003033149184606F0E4
:10B6700087FF0F9B002B47D1039B9B69002B43D077
:10B68000089B1846FFF7ADF90346002B3CD0059BFD
:10B69000002B0DD01E4A1F4BD31ADB081B0443F0AE
:10B6A00003032449184606F06BFF059B01221A701C
:10B6B000174A184BD31ADB081B0443F003031E4937
:10B6C000184606F05DFF09AB18220021184608F065
:10B6D000C7FA02238DF82430039B0A93029B9B88B0
:10B6E000ADF82C30059B0C93039B9B6909AA10466F
:10B6F0009847074A074BD31ADB081B0443F00303A0
:10B700000E49184606F03CFF00BF11B000BD00BF57
:10B71000443E0300043E0300F043030004440300DE
:10B72000204403004444030084440300A84403006D
:10B73000C4440300E0440300FC4403001845030034
:10B7400030B593B001900091684A694BD31ADB0879
:10B750001B0443F003036749184606F011FF009BE2
:10B7600006331193019B5869009B9B8808AA1946D0
:10B77000FFF7DAF81090109B002B0CD05B4A5C4B63
:10B78000D31ADB081B0443F00100009B9B881A4678
:10B79000594906F002FF09AB18220021184608F0AB
:10B7A0005FFA019B0A93009B9B88ADF82C30089BA5
:10B7B0000C934E4A4E4BD31ADB081B0443F0030094
:10B7C000009B9B881A46089B4C4906F0F6FE119B8D
:10B7D0001A88019B1B899A426AD1119B5B89022BB3
:10B7E00066D1089B002B7DD0119B0C331846FFF7C8
:10B7F000F8F80346002B11D03C4A3D4BD31ADB0826
:10B800001B0443F003033E49184606F0B9FE089BAB
:10B8100001221A7002238DF8243005E0089B0022D3
:10B820001A7003238DF82430019B9B69002B0FD0E5
:10B830002E4A2F4BD31ADB081B0443F00303314974
:10B84000184606F09DFE019B9B6909AA1046984781
:10B85000089B1B78002B45D0244A254BD31ADB08C4
:10B860001B0443F003032849184606F089FE274BC2
:10B8700003AC1D460FCD0FC42B6823701023ADF809
:10B880000A30BDF82C300DF10A0203A9019800F02E
:10B8900067F90F90154A164BD31ADB081B0443F0C7
:10B8A0000300119B1B881A46194906F076FE19E021
:10B8B000119B1A88019B9B899A4214D1019B9B6919
:10B8C000002B10D000238DF82430119B0C330D93E6
:10B8D000119B5B89ADF83830019B9B6909AA104622
:10B8E000984700E000BF00BF13B030BD443E0300E6
:10B8F000043E030030450300444403004445030074
:10B90000644503008045030094450300CC450300D3
:10B91000B445030000B58BB001900091019B5869BC
:10B92000009B9B8802AA1946FEF7FEFF0990099B1F
:10B93000002B0DD0164A174BD31ADB081B0443F01B
:10B940000100009B9B881A46134906F026FE1DE065
:10B95000029B1B78002B19D0019B9B69002B15D0F3
:10B9600003AB18220021184608F07AF901238DF85C
:10B970000C30019B0493009B9B88ADF81430029B14
:10B980000693019B9B6903AA104698470BB000BD24
:10B99000443E0300043E03004444030000B585B068
:10B9A00001900091009B002B29D0019B002B26D0F9
:10B9B000009B0393019B1B88572B1BD0572B20DC2C
:10B9C000102B02D0502B10D01BE00F4A0F4BD31A74
:10B9D000DB081B0443F003030D49184606F0D0FDB5
:10B9E00001990398FFF7A8FD0CE001990398FFF770
:10B9F000A7FE07E001990398FFF78CFF02E000BF64
:10BA000000E000BF05B000BD443E0300043E03005B
:10BA1000E045030010B592B0019000914F4B0AAC85
:10BA20000FCB84E80F00019B002B01D10E2391E086
:10BA3000009B002B01D10E238CE0009B1A68019B18
:10BA40009A61019A0AAB11461846FFF770FD1190F2
:10BA5000119B1093109B002B01D0109B7AE0019B4F
:10BA60001B788DF83A300123ADF83830019B9A1CD1
:10BA70000EAB19460120FFF74EFD1190119B0F935D
:10BA80000F9B002B01D00F9B64E002AB2022002112
:10BA9000184608F0E5F80223ADF80830019B1B7842
:10BAA0008DF80A30F423ADF80C300123ADF80E30D8
:10BAB00001238DF814309DF8153043F008038DF8FC
:10BAC00015309DF8153043F004038DF8153001232F
:10BAD0008DF8193001238DF81A30019B5888019B8D
